:020000040800F2
:1000000000500020D10F0008C90E0008D50E0008CE
:10001000DB0E0008E10E0008E70E000800000000FB
:10002000000000000000000000000000ED0E0008CD
:10003000F90E000800000000050F0008110F00086D
:1000400019100008191000081910000819100008EC
:1000500019100008191000081910000819100008DC
:1000600019100008191000081910000819100008CC
:100070001910000819100008191000081D0F0008B9
:1000800019100008191000081910000819100008AC
:10009000310F000819100008191000081910000885
:1000A000191000081910000819100008191000088C
:1000B000191000081910000819100008191000087C
:1000C000191000081910000819100008191000086C
:1000D00019100008450F0008191000081910000831
:1000E000191000081910000819100008000000007D
:1000F0000000000000000000000000000000000000
:0C01000000000000000000005FF808F1A3
:1001100010B5054C237833B9044B13B10448AFF341
:1001200000800123237010BD5C030020000000004C
:10013000ECCD000808B5034B1BB103490348AFF3EE
:10014000008008BD0000000060030020ECCD000826
:1001500010F8012B11F8013B012A28BF9A42F7D071
:10016000D01A7047034613F8012B002AFBD1181A46
:100170000138704781F0004102E000BF83F0004386
:1001800030B54FEA41044FEA430594EA050F08BF32
:1001900090EA020F1FBF54EA000C55EA020C7FEAF6
:1001A000645C7FEA655C00F0E2804FEA5454D4EB73
:1001B0005555B8BF6D420CDD2C4480EA020281EA3D
:1001C000030382EA000083EA010180EA020281EA75
:1001D0000303362D88BF30BD11F0004F4FEA0131C7
:1001E0004FF4801C4CEA113102D0404261EB4101D6
:1001F00013F0004F4FEA03334CEA133302D052425C
:1002000063EB430394EA050F00F0A780A4F1010417
:10021000D5F1200E0DDB02FA0EFC22FA05F2801851
:1002200041F1000103FA0EF2801843FA05F3594137
:100230000EE0A5F120050EF1200E012A03FA0EFCB6
:1002400028BF4CF0020C43FA05F3C01851EBE371E0
:1002500001F0004507D54FF0000EDCF1000C7EEBFD
:1002600000006EEB0101B1F5801F1BD3B1F5001F3B
:100270000CD349085FEA30004FEA3C0C04F101045A
:100280004FEA445212F5800F80F09A80BCF1004F83
:1002900008BF5FEA500C50F1000041EB045141EA05
:1002A000050130BD5FEA4C0C404141EB010111F406
:1002B000801FA4F10104E9D191F0000F04BF0146B1
:1002C0000020B1FA81F308BF2033A3F10B03B3F18F
:1002D00020020CDA0C3208DD02F1140CC2F10C021F
:1002E00001FA0CF021FA02F10CE002F11402D8BF7D
:1002F000C2F1200C01FA02F120FA0CFCDCBF41EA49
:100300000C019040E41AA2BF01EB0451294330BD17
:100310006FEA04041F3C1CDA0C340EDC04F11404F4
:10032000C4F1200220FA04F001FA02F340EA0300CB
:1003300021FA04F345EA030130BDC4F10C04C4F111
:10034000200220FA02F001FA04F340EA03002946F1
:1003500030BD21FA04F0294630BD94F0000F83F43B
:10036000801306BF81F480110134013D4EE77FEA1E
:10037000645C18BF7FEA655C29D094EA050F08BF6A
:1003800090EA020F05D054EA000C04BF194610464B
:1003900030BD91EA030F1EBF0021002030BD5FEA8F
:1003A000545C05D14000494128BF41F0004130BDB7
:1003B00014F580043CBF01F5801130BD01F000450B
:1003C00045F0FE4141F470014FF0000030BD7FEA7E
:1003D000645C1ABF194610467FEA655C1CBF0B4679
:1003E000024650EA013406BF52EA033591EA030F90
:1003F00041F4002130BD00BF90F0000F04BF002188
:10040000704730B54FF4806404F132044FF00005BA
:100410004FF0000150E700BF90F0000F04BF002133
:10042000704730B54FF4806404F1320410F0004599
:1004300048BF40424FF000013EE700BF42004FEA94
:10044000E2014FEA31014FEA02701FBF12F07F4311
:1004500093F07F4F81F06051704732F07F4208BFC8
:10046000704793F07F4F04BF41F40021704730B5CF
:100470004FF4607401F0004521F000411CE700BF1B
:1004800050EA010208BF704730B54FF000050AE09E
:1004900050EA010208BF704730B511F0004502D59F
:1004A000404261EB41014FF4806404F132045FEAA1
:1004B000915C3FF4D8AE4FF003025FEADC0C18BF4A
:1004C00003325FEADC0C18BF033202EBDC02C2F13C
:1004D000200300FA03FC20FA02F001FA03FE40EACE
:1004E0000E0021FA02F11444BDE600BF70B54FF0D2
:1004F000FF0C4CF4E06C1CEA11541DBF1CEA1355B0
:1005000094EA0C0F95EA0C0F00F0DEF82C4481EA17
:10051000030621EA4C5123EA4C5350EA013518BF37
:1005200052EA033541F4801143F4801338D0A0FB24
:1005300002CE4FF00005E1FB02E506F00042E0FBD1
:1005400003E54FF00006E1FB03569CF0000F18BFD7
:100550004EF0010EA4F1FF04B6F5007F64F540747F
:1005600004D25FEA4E0E6D4146EB060642EAC62112
:1005700041EA55514FEAC52040EA5E504FEACE2E7F
:10058000B4F1FD0C88BFBCF5E06F1ED8BEF1004F82
:1005900008BF5FEA500E50F1000041EB045170BDFE
:1005A00006F0004646EA010140EA020081EA030142
:1005B000B4EB5C04C2BFD4EB0C0541EA045170BD3E
:1005C00041F480114FF0000E013C00F3AB8014F1B8
:1005D000360FDEBF002001F0004170BDC4F1000401
:1005E000203C35DA0C341BDC04F11404C4F1200582
:1005F00000FA05F320FA04F001FA05F240EA0200DD
:1006000001F0004221F0004110EBD37021FA04F612
:1006100042EB06015EEA430E08BF20EAD37070BDCC
:10062000C4F10C04C4F1200500FA04F320FA05F02B
:1006300001FA04F240EA020001F0004110EBD3702D
:1006400041F100015EEA430E08BF20EAD37070BD9D
:10065000C4F1200500FA05F24EEA020E20FA04F376
:1006600001FA05F243EA020321FA04F001F0004125
:1006700021FA04F220EA020000EBD3705EEA430E96
:1006800008BF20EAD37070BD94F0000F0FD101F0C5
:100690000046400041EB010111F4801F08BF013CFE
:1006A000F7D041EA060195F0000F18BF704703F03C
:1006B0000046520043EB030313F4801F08BF013DC3
:1006C000F7D043EA0603704794EA0C0F0CEA13557F
:1006D00018BF95EA0C0F0CD050EA410618BF52EA39
:1006E0004306D1D181EA030101F000414FF000003F
:1006F00070BD50EA410606BF1046194652EA43064D
:1007000019D094EA0C0F02D150EA013613D195EAC0
:100710000C0F05D152EA03361CBF104619460AD108
:1007200081EA030101F0004141F0FE4141F4700112
:100730004FF0000070BD41F0FE4141F4780170BD02
:1007400070B54FF0FF0C4CF4E06C1CEA11541DBF67
:100750001CEA135594EA0C0F95EA0C0F00F0A7F869
:10076000A4EB050481EA030E52EA03354FEA013196
:1007700000F088804FEA03334FF0805545EA1313A9
:1007800043EA12634FEA022245EA111545EA106571
:100790004FEA00260EF000419D4208BF964244F108
:1007A000FD0404F5407402D25B084FEA3202B61A27
:1007B00065EB03055B084FEA32024FF480104FF4FB
:1007C000002CB6EB020E75EB030E22BFB61A75466F
:1007D00040EA0C005B084FEA3202B6EB020E75EB02
:1007E000030E22BFB61A754640EA5C005B084FEA6A
:1007F0003202B6EB020E75EB030E22BFB61A754637
:1008000040EA9C005B084FEA3202B6EB020E75EB41
:10081000030E22BFB61A754640EADC0055EA060E02
:1008200018D04FEA051545EA16754FEA06164FEA45
:10083000C30343EA52734FEAC2025FEA1C1CC0D1F1
:1008400011F4801F0BD141EA00014FF000004FF07E
:10085000004CB6E711F4801F04BF01430020B4F13F
:10086000FD0C88BFBCF5E06F3FF6AFAEB5EB030CF7
:1008700004BFB6EB020C5FEA500C50F1000041EBF4
:10088000045170BD0EF0004E4EEA113114EB5C04C1
:10089000C2BFD4EB0C0541EA045170BD41F4801194
:1008A0004FF0000E013C90E645EA060E8DE60CEA9C
:1008B000135594EA0C0F08BF95EA0C0F3FF43BAFB9
:1008C00094EA0C0F0AD150EA01347FF434AF95EA70
:1008D0000C0F7FF425AF104619462CE795EA0C0F54
:1008E00006D152EA03353FF4FDAE1046194622E721
:1008F00050EA410618BF52EA43067FF4C5AE50EAFB
:1009000041047FF40DAF52EA43057FF4EBAE12E7EA
:100910004FF0FF3C06E000BF4FF0010C02E000BFCB
:100920004FF0010C4DF804CD4FEA410C7FEA6C5CAE
:100930004FEA430C18BF7FEA6C5C1BD001B050EA51
:10094000410C0CBF52EA430C91EA030F02BF90EA3C
:10095000020F0020704710F1000F91EA030F58BFFB
:10096000994208BF90422CBFD8176FEAE37040F05D
:10097000010070474FEA410C7FEA6C5C02D150EAFB
:10098000013C07D14FEA430C7FEA6C5CD6D152EAB6
:10099000033CD3D05DF8040B704700BF844610467B
:1009A00062468C461946634600E000BF01B5FFF77A
:1009B000B7FF002848BF10F1000F01BD4DF808ED4A
:1009C000FFF7F4FF0CBF012000205DF808FB00BF1B
:1009D0004DF808EDFFF7EAFF34BF012000205DF875
:1009E00008FB00BF4DF808EDFFF7E0FF94BF0120C2
:1009F00000205DF808FB00BF4DF808EDFFF7CEFFC3
:100A000094BF012000205DF808FB00BF4DF808ED01
:100A1000FFF7C4FF34BF012000205DF808FB00BFD2
:100A20004FEA410C7FEA6C5C02D150EA013C0AD1EA
:100A30004FEA430C7FEA6C5C02D152EA033C02D1DC
:100A40004FF0000070474FF0010070474FEA41023D
:100A500012F5001215D211D56FF47873B3EB625210
:100A600012D94FEAC12343F0004343EA505311F037
:100A7000004F23FA02F018BF404270474FF00000C9
:100A8000704750EA013005D111F0004008BF6FF007
:100A9000004070474FF00000704700BF4A0011D27D
:100AA00012F5001211D20DD56FF47873B3EB6252C8
:100AB0000ED44FEAC12343F0004343EA505323FAD4
:100AC00002F070474FF00000704750EA013002D149
:100AD0004FF0FF3070474FF0000070474FEA41027F
:100AE000B2F1E04324BFB3F5001CDCF1FE5C0DD98C
:100AF00001F0004C4FEAC0024CEA5070B2F1004FD6
:100B000040EB830008BF20F00100704711F0804FD8
:100B100021D113F13872BCBF01F00040704741F49D
:100B200080114FEA5252C2F11802C2F1200C10FAA1
:100B30000CF320FA02F018BF40F001004FEAC12385
:100B40004FEAD32303FA0CFC40EA0C0023FA02F329
:100B50004FEA4303CCE77FEA625307D150EA0133FF
:100B60001EBF4FF0FE4040F44000704701F00040CF
:100B700040F0FE4040F40000704700BF4FF0FF3CE3
:100B800006E000BF4FF0010C02E000BF4FF0010C87
:100B90004DF804CD4FEA40024FEA41037FEA226C50
:100BA00018BF7FEA236C11D001B052EA530C18BF72
:100BB00090EA010F58BFB2EB030088BFC81738BFD7
:100BC0006FEAE17018BF40F0010070477FEA226CC5
:100BD00002D15FEA402C05D17FEA236CE4D15FEAC1
:100BE000412CE1D05DF8040B704700BF84460846F5
:100BF0006146FFE70FB5FFF7C9FF002848BF10F1B6
:100C0000000F0FBD4DF808EDFFF7F4FF0CBF0120FA
:100C100000205DF808FB00BF4DF808EDFFF7EAFF84
:100C200034BF012000205DF808FB00BF4DF808ED3F
:100C3000FFF7E0FF94BF012000205DF808FB00BF34
:100C40004DF808EDFFF7D2FF94BF012000205DF8BA
:100C500008FB00BF4DF808EDFFF7C8FF34BF0120C7
:100C600000205DF808FB00BF4FEA40024FEA410355
:100C70007FEA226C02D15FEA402C08D17FEA236C24
:100C800002D15FEA412C02D14FF0000070474FF0D3
:100C90000100704780B500AF4FF46141002001F0C2
:100CA00005FB4FF46141012001F000FB4FF461416D
:100CB000002000F06BFA4FF46141012000F084FA4B
:100CC00000BF80BD80B584B000AF4FF47A73BB60C5
:100CD00000F05BF8F86001F061FA0346012B01D9DE
:100CE000C823BB6000F051F80246FB68D31AB3F585
:100CF0007A7F02D300F049F8F860012001F06CFB24
:100D00000346002B0AD0012001F098FB0346FB713B
:100D1000FB791A460349012001F0E0FB00F00EFBCD
:100D2000E0E700BF08CE000880B582B000AF01F058
:100D300005FD00F031F80E4B9B690D4A43F020038E
:100D400093610B4B9B6903F020037B607B68084B2E
:100D50009B69074A43F004039361054B9B6903F0C9
:100D600004033B603B6800BF0837BD4680BD00BF41
:100D70000010024080B582B000AF7860786801F062
:100D80003FFD00BF0837BD4680BD80B500AF01F014
:100D90002DFD0346184680BD80B594B000AF07F125
:100DA000280328220021184609F042FD07F1140308
:100DB00000221A605A609A60DA601A613B1D0022B4
:100DC0001A605A609A60DA600523BB624FF4803380
:100DD000FB6200233B6301237B630123BB6302238C
:100DE0007B644FF48033BB644FF4E013FB6407F182
:100DF0002803184603F0FAFE0346002B01D000F04A
:100E00002AF80F237B610223BB610023FB614FF4AF
:100E100080633B6200237B6207F1140302211846C2
:100E200004F064F90346002B01D000F014F81123FC
:100E30007B604FF48073BB6000233B613B1D184611
:100E400004F0F0FA0346002B01D000F004F800BFD4
:100E50005037BD4680BD80B400AF00BFBD4680BCEA
:100E60007047000080B485B000AF154B9B69144AF1
:100E700043F001039361124B9B6903F00103BB60D4
:100E8000BB680F4BDB690E4A43F08053D3610C4BB8
:100E9000DB6903F080537B607B680A4B5B68FB6017
:100EA000FB6823F0E063FB60FB6843F00073FB60CA
:100EB000044AFB68536000BF1437BD4680BC7047CE
:100EC000001002400000014080B400AF00BFBD46EA
:100ED00080BC704780B400AFFEE780B400AFFEE78F
:100EE00080B400AFFEE780B400AFFEE780B400AF8F
:100EF00000BFBD4680BC704780B400AF00BFBD4698
:100F000080BC704780B400AF00BFBD4680BC704756
:100F100080B500AF01F058FC00BF80BD80B500AFC8
:100F2000024801F059FF00BF80BD00BF940C0020B3
:100F300080B500AF024802F0FBFB00BF80BD00BFE0
:100F40006016002080B500AF024804F0B3FE00BF79
:100F500080BD00BFD80C002080B586B000AF78609F
:100F6000144A154BD31A7B617B693B61134B1B6899
:100F7000002B02D1114B124A1A60104B1A687B6881
:100F800013443A699A4207D209F028FC02460C231E
:100F900013604FF0FF3309E0084B1B68FB60074B01
:100FA0001A687B681344054A1360FB6818461837B3
:100FB000BD4680BD005000200004000078030020E2
:100FC0005019002080B400AF00BFBD4680BC704700
:100FD000002103E00B4B5B58435004310A480B4B94
:100FE00042189A42F6D30A4A02E0002342F8043B30
:100FF000084B9A42F9D3FFF7E5FF09F0F5FB09F03A
:10100000E1FB7047C8D20008000000205C0300200C
:101010005C03002050190020FEE780B487B000AFC9
:10102000F860B9607A600123FB75FB6800221A60E2
:10103000FB6800225A60FB687A689A60FB68BA68AD
:10104000DA60FB7D18461C37BD4680BC704780B413
:1010500087B000AFF860B9607A600123FB750023A8
:101060003B6126E0FB68DB68002B09D0FB68DA688F
:10107000FB685B681A443B69B9680B4412781A70C4
:10108000FB685A68FB681B689A420CD0FB685B6877
:101090000133FA689268B3FBF2F102FB01F29A1A8B
:1010A000FB685A6002E00023FB7506E03B690133F0
:1010B0003B613B697A689A42D4D8FB7D18461C375D
:1010C000BD4680BC704780B485B000AF78607B6857
:1010D0001A687B685B68D31A7A689268B3FBF2F18E
:1010E00002FB01F29B1AFB60FB6818461437BD46F1
:1010F00080BC704780B500AF1B4B00221A721A4BA0
:1011000000225A72184B00221A74174B002283F8DF
:101110009521154B002283F89621134B002283F86A
:101120009721114B002283F894210F4B0F4AC3F8EB
:1011300094230D4B0E4AC3F898230B4B0D4AC3F86A
:101140009C23094B0C4AC3F8A023074800F07CFB02
:101150000A490B4800F02CFE0A490B4800F028FE13
:101160000123184680BD00BFF00800204D1C000878
:101170009D1C0008ED1C0008311D0008451E0008DC
:1011800014CE0008B51E00081CCE000880B582B041
:1011900000AF03463960FB710A4AFB791370094AB4
:1011A0003B685360FB793968184601F07FF80346C5
:1011B0001A46044B1A72034B1B7A18460837BD4671
:1011C00080BD00BFF008002080B584B000AF0346AA
:1011D0003960FB710B4AFB7993720A4A3B68D36012
:1011E000FB793968184601F061F80346FB73FB7B15
:1011F000002B02D0034B01225A72FB7B184610379A
:10120000BD4680BDF008002080B584B000AF786096
:10121000344B5B7A002B61D07B68987A7B6893F8BB
:1012200045321A46304901F059F97B68987A7B6853
:1012300093F846321A462D4901F050F97B68987AA6
:101240007B6893F844321A46294901F047F97B68D4
:10125000987A7B6803F509731A46264901F03EF92E
:101260007B68987A7B6893F995311A46224901F098
:1012700035F97B68987A7B6893F896311A461F494E
:1012800001F02CF97B68987A7B6893F897311A46BD
:101290001B4901F023F90023FB6012E07B68987A78
:1012A000FA6813469B001344DA00D21A02F5CC7395
:1012B0007A681344FA68134901F010F9FB680133A6
:1012C000FB607B6893F897311A46FB689342E5DB35
:1012D0007B689B7A0C49184601F000F900BF103773
:1012E000BD4680BDF008002020CE000830CE0008AA
:1012F00040CE000850CE000860CE000870CE000836
:1013000080CE000890CE0008A0CE000880B582B044
:1013100000AF78607B681B780649184601F0DEF85C
:101320007B681B780449184601F0D8F800BF0837DD
:10133000BD4680BDA4CE0008A8CE000880B500AF91
:101340000E4B1B7A83F00103DBB2002B01D000238C
:1013500012E00A4B1B78184601F03EF80346002BBA
:1013600009D0064B1B78184601F068F80346194669
:10137000024800F005F80123184680BDF00800205F
:1013800080B58CB000AF78600B46FB70002387F807
:1013900023307B6803F50973FB617B681B7C002BA2
:1013A00040F06581FB780D2B09D00D2B02DC082B5A
:1013B00065D0D4E01B2B1CD07F2B1ED0CFE0FB6967
:1013C00093F82230002B05D0786800F056FA786840
:1013D00000F042FB7B68002283F84622FB69002272
:1013E00083F82120FB6900221A707868FFF78EFFCE
:1013F00044E17B6801221A7440E1FB6993F82120E3
:10140000FB6993F822309A4280F03381FB6993F8AC
:101410002220FB6993F82130D31AFB760123FB626B
:1014200013E0FB6993F821301A46FB6A1A44FB6902
:1014300093F821301946FB6A0B44013BF969895C3A
:10144000FA69D154FB6A0133FB62FB7EFA6A9A4265
:10145000E7DBFB6993F82230013BDAB2FB6983F8E2
:101460002220FB6993F822301A46FB690021995427
:101470007B681B788E49184601F030F8F9E0FB696B
:1014800093F82230002B55D0FB6993F82130002BC4
:1014900050D0FB6993F82120FB6993F822309A42DF
:1014A0000ED1FB6993F82230013BDAB2FB6983F875
:1014B0002220FB6993F822301A46FB6900219954D7
:1014C000FB6993F82120FB6993F822309A4231D2CC
:1014D000FB6993F82220FB6993F82130D31ABB767D
:1014E0000023BB6213E0FB6993F821301A46BB6A04
:1014F0001A44FB6993F821301946BB6A0B44013B3F
:10150000F969895CFA69D154BB6A0133BB62BB7E5D
:10151000BA6A9A42E7DBFB6993F82230013BDAB200
:10152000FB6983F82220FB6993F822301A46FB6995
:1015300000219954FB6993F82130002B00F09B8027
:10154000FB6993F82130013BDAB2FB6983F8212073
:101550007B681B785749184600F0C0FF8BE0FB6999
:1015600093F822300133FA6992F82020934280F2F6
:101570008480FB6993F82120FB6993F822309A421A
:1015800024D17B681B78F91C0122184600F07AFFF1
:10159000FB6993F821301A46F978FB699954FB6985
:1015A00093F822300133DAB2FB6983F82220FB6919
:1015B00093F821300133DAB2FB6983F82120FB690B
:1015C00093F822301A46FB6900219954FB6993F87D
:1015D0002120FB6993F822309A424ED2FB6993F89E
:1015E0002220FB6993F82130D31A7B7600237B629B
:1015F00013E0FB6993F822301A467B6AD31A5A1E0D
:10160000FB6993F8223019467B6ACB1AF969895C29
:10161000FA69D1547B6A01337B627B7E7A6A9A4293
:10162000E7DBFB6993F821301A46F978FB69995496
:10163000FB6993F822300133DAB2FB6983F8222088
:10164000FB6993F821300133DAB2FB6983F821207A
:10165000FB6993F822301A46FB69002199547B6894
:101660001B78FA781449184600F038FF05E000BFEF
:1016700004E000BF02E000BF00E000BF7B681B7C0D
:10168000013B032B00F2D38001A252F823F000BFEC
:10169000A1160008A9160008BD16000825180008A4
:1016A0007B6802221A74C2E07B6803221A74BEE0CF
:1016B000B0CE0008B8CE0008C0CE00087B6800227B
:1016C0001A74FB78442B1AD1FB6993F82130002B54
:1016D00015D0FB6993F82130013BDAB2FB6983F83E
:1016E00021201B233B735B237B73FB78BB737B68DD
:1016F0001B7807F10C010322184600F0C3FEFB78AB
:10170000432B1DD1FB6993F82120FB6993F820300E
:101710009A4207D2FB6993F821300133DAB2FB69B0
:1017200083F821201B233B735B237B73FB78BB7304
:101730007B681B7807F10C010322184600F0A2FE1B
:10174000FB78412B0CD10121786800F0EBF87B6825
:101750001A787B6803F509731946104600F0BEFE3F
:10176000FB78422B0CD10021786800F0DBF87B6815
:101770001A787B6803F509731946104600F0AEFE2F
:10178000FB78312B0FD17B681878FB6993F82130F7
:101790001A462B4900F0A2FEFB69002283F82120A3
:1017A0007B6804221A74FB78342B3FD1FB6993F8D1
:1017B0002120FB6993F822309A4210D2FB6993F8FA
:1017C00022309AB2FB6993F821309BB2D31AFB8284
:1017D0007B681B78FA8A1B49184600F07FFEFB697C
:1017E00093F82120FB6993F822309A4210D9FB69C3
:1017F00093F821309AB2FB6993F822309BB2D31A46
:10180000FB827B681B78FA8A0D49184600F066FE59
:10181000FB6993F82220FB6983F821207B6804226E
:101820001A7403E07B6800221A7400E000BF786835
:10183000FFF7EAFC97F8233018463037BD4680BDE5
:10184000CCCE0008D4CE000880B483B000AF78605E
:101850007B68002283F846227B68002283F84522B9
:101860007B681F2283F844227B68002283F82422AD
:1018700000BF0C37BD4680BC7047F0B583B000AFE9
:1018800078607B6893F896311A46796813469B0016
:101890001344DA00D21A8B1803F5CC727B6803F577
:1018A0000974944604F1200E654626460FCE286042
:1018B0006960AA60EB6010340CF1100C7445F3D130
:1018C000634622461188927819809A707B6893F853
:1018D0009731032B07D87B6893F897310133DAB23D
:1018E0007B6883F897217B6893F896315AB27B68BE
:1018F00083F895217B6893F8963101335A4203F0BF
:10190000030302F0030258BF5342DAB27B6883F844
:1019100096217B68012283F8942100BF0C37BD46D5
:10192000F0BD0000F0B585B000AF78600B46FB70ED
:101930007B6893F89731002B00F086807B6893F8E2
:101940004532002B08D07B6818787B6893F84532C5
:101950001A463F4900F0C2FD7B6893F84632002BDF
:1019600008D07B6818787B6893F846321A46394964
:1019700000F0B4FD97F90330012B25D17B6893F873
:101980009431002B06D07B6893F896315AB27B686D
:1019900083F895217B6893F995311A467B6893F813
:1019A00097311344013B7A6892F8972193FBF2F147
:1019B00002FB01F29B1A5AB27B6883F895217B687F
:1019C00093F99531FB7313E07B6893F995310133FB
:1019D0007A6892F8972193FBF2F102FB01F29B1ACD
:1019E0005AB27B6883F895217B6893F99531FB7334
:1019F000FA7B7968786813469B001344DA00D21AA0
:101A0000831803F5CC731C4601F5097604F1200C0C
:101A100035462346186859689A68DB680FC5103444
:101A200010366445F4D133462246118892781980E5
:101A30009A707B6893F846227B6883F845227B681E
:101A4000002283F8942100E000BF1437BD46F0BDAA
:101A5000CCCE0008DCCE000880B584B000AF786042
:101A60000023FB72786800F051F80346002B46D043
:101A7000254800F093F87B68D3F81431184600F03D
:101A8000B1F80023FB6033E07B68D3F81401FA68F7
:101A900013469B0013449B0003F512737A681344AA
:101AA00004331946FEF754FB0346002B1DD17B6817
:101AB000B3F81231013B9AB27B68A3F88C237B68A0
:101AC00003F58C727B68C3F890237968FA68134633
:101AD0009B0013449B000B4403F517731B687A6843
:101AE00002F563721046984709E0FB680133FB601A
:101AF0007B68B3F848321A46FB689342C4DBFB7A32
:101B000018461037BD4680BDE4CE000880B588B0C9
:101B100000AF78600023FB770023FB827B68002204
:101B2000A3F812217B6803F509733B617B6803F519
:101B30008A73FB60FB8A9B00FA68134400221A60D8
:101B4000154B1B6807F108021946386909F01CFD9E
:101B5000B86110E0FB8A5A1CFA829B00FA681344B1
:101B6000BA691A600C4B1B6807F10802194600207D
:101B700009F00AFDB861BB69002BEBD17B68FA8ADA
:101B8000A3F81221FB8A002B01D00123FB77FB7FF6
:101B900018462037BD4680BD040000200FB480B534
:101BA00084B000AF07F11C037B600D4BFB60FB684A
:101BB00003F111007B68BA694FF4807109F0A4FD4C
:101BC000B860FB681878FB681133BA68194600F0F2
:101BD00059FC00BF1037BD46BDE8804004B07047D7
:101BE000F008002080B485B000AF78600023FB814E
:101BF00018E0FB897A6813441B787B737B7B002B8E
:101C000014D07B7B602B05D97B7B7A2B02D87B7B26
:101C1000203B7B73FB897A6813447A7B1A70FB89BB
:101C20000133FB81FB890F2BE3D900E000BFFB8967
:101C3000102B05D1FB89013B7A68134400221A70EE
:101C400000BF1437BD4680BC7047000080B584B02B
:101C500000AF0346FB710023FB600F4BBB60FB79B9
:101C60009AB2BB68B3F88C339A4201D300230EE0DA
:101C7000BB68D3F89023FB799B0013441B680022B8
:101C80000021184609F0FEFC0346FB60FB6818467D
:101C90001037BD4680BD00BFF008002080B584B07D
:101CA00000AF0346FB714FF00003FB600E4BBB60BF
:101CB000FB799AB2BB68B3F88C339A4202D34FF0E7
:101CC00000030CE0BB68D3F89023FB799B0013441E
:101CD0001B680021184609F0DFFBF860FB68184616
:101CE0001037BD4680BD00BFF008002080B485B02D
:101CF00000AF0346FB710023FB600C4BBB60FB791C
:101D00009AB2BB68B3F88C339A4201D3002308E03F
:101D1000BB68D3F89023FB799B0013441B68FB60DE
:101D2000FB6818461437BD4680BC7047F008002099
:101D300080B584B000AF03463960FB710023FB73AC
:101D40000F4BBB60FB799AB2BB68B3F88C339A42F5
:101D500001D3002310E0BB68D3F89023FB799B00EC
:101D600013441B6819463868FEF7F2F90346002B46
:101D700001D10123FB73FB7B18461037BD4680BDA4
:101D8000F008002080B582B000AF084B7B607B6814
:101D90001B78184600F020FB0346002B01D10123DD
:101DA00000E0002318460837BD4680BDF00800203B
:101DB00080B586B000AF786039600123FB75204B99
:101DC0003B613B69B3F848320F2B01D9002332E065
:101DD0003B69B3F84832FB81FA8913469B001344F0
:101DE0009B0003F512733A6913440433796818466B
:101DF00008F026FDFA89396913469B0013449B00BD
:101E00000B4403F517733A681A60FA8913469B006E
:101E100013449B0003F512733A69134404331846C4
:101E2000FFF7E0FE3B69B3F8483201339AB23B69F1
:101E3000A3F84822FB7D18461837BD4680BD00BF79
:101E4000F008002080B584B000AF7860154BBB600F
:101E50001548FFF7A3FE1548FFF7A0FE0023FB601F
:101E600012E0FA6813469B0013449B0003F51273BB
:101E7000BA68134404331846FFF790FE0A48FFF788
:101E80008DFEFB680133FB60BB68B3F848321A462D
:101E9000FB689342E5DB0648FFF780FE00BF103782
:101EA000BD4680BDF0080020E4CE0008E8CE000862
:101EB00008CF000880B58CB000AF78601023BB62FB
:101EC0007B681B887B617B685B683B617B681B88E8
:101ED000002B03D14048FFF761FE7AE07B69012BBC
:101EE00009DD3B6904331B6800220021184609F014
:101EF000C9FB0346BB623B691B68002200211846F0
:101F000009F0C0FB03467B627B6ABB613348FFF785
:101F100045FE0023FB6258E0FB6A03F00303002B3D
:101F200004D17B6A19462E48FFF738FE7B6A1B688E
:101F300019462C48FFF732FEFB6A5A4203F00303AE
:101F400002F0030258BF5342032B38D12648FFF753
:101F500025FE00233B622CE0BB691B68FB6000236D
:101F6000FB611DE007F10C02FB6913441B781F2B7A
:101F700010D907F10C02FB6913441B787E2B09D89A
:101F800007F10C02FB6913441B7819461748FFF749
:101F900005FE02E01648FFF701FEFB690133FB6115
:101FA000FB69032BDEDDBB690433BB613B6A013394
:101FB0003B623B6A032BCFDD0E48FFF7EFFD7B6AE8
:101FC00004337B62FB6A0133FB62FA6ABB6A9A42A2
:101FD000A2DB3037BD4680BD28CF00083CCF0008CB
:101FE00044CF000850CF000858CF00085CCF00084D
:101FF00060CF000864CF000880B483B000AF002336
:102000007B6012E07B6803F500339B0219460B4AA4
:102010007B6842F83310094A7B68DB0013444FF4B5
:1020200080629A807B6801337B607B683F2BE9DDAF
:10203000012318460C37BD4680BC70477C03002046
:1020400080B586B000AF0123FB753B1D00221A60EE
:102050005A609A60DA60144B9B69134A43F010038C
:102060009361114B9B6903F010033B603B680022B6
:102070004FF400510D4801F0F9F94FF400537B6023
:102080001123BB600023FB6002233B613B1D19460B
:10209000064800F0D5FF06490648FFF789FEFB7D9C
:1020A00018461837BD4680BD0010024000100140A0
:1020B000B920000874CF000880B586B000AF786002
:1020C0000023FB757B681B88032B28D17B685B6929
:1020D0001949002098470346002B20D07B689B6855
:1020E000022098470346FB60FEF74FFE38610FE081
:1020F000FEF74BFE02463B69D31AFA689A4207D8AC
:10210000FEF743FE38614FF400510C4801F0C6F968
:10211000FFF738FE0346002BEAD10123FB75FB7D58
:1021200083F00103DBB2002B02D00548FFF736FD38
:1021300000BF1837BD4680BD78CF000800100140B1
:1021400080CF000880B582B000AF0123FB71114B36
:102150005B6A03F08063002B12D0012000F058F876
:10216000034601331946012000F042F84FF4FA709B
:10217000FEF700FE012000F04BF80246064B1A6005
:102180000021012000F034F8FB7918460837BD46DD
:1021900080BD00BF001002407C05002080B400AF6D
:1021A000024B1B681846BD4680BC70477C0500206A
:1021B00080B582B000AF0123FB710B4B0B4A1A6054
:1021C000094B4FF0FF325A60074B00229A600648D5
:1021D00003F09AFA0346002B01D0FEF73CFEFB7990
:1021E00018460837BD4680BD800500200028004005
:1021F00080B582B000AF786039603A68796803488A
:1022000003F096FB00BF0837BD4680BD8005002067
:1022100080B582B000AF78607968044803F0A2FB13
:10222000034618460837BD4680BD00BF8005002024
:1022300080B584B000AF78607B681B680B4A93421E
:1022400010D102F0C7FC0A4BDB69094A43F0006376
:10225000D361074BDB6903F00063FB60FB68054B50
:1022600001221A6000BF1037BD4680BD0028004023
:10227000001002403C04424280B483B000AF00230F
:102280007B6007E0084A7B68134400221A707B6871
:1022900001337B607B68012BF4DD012318460C378A
:1022A000BD4680BC704700BF9405002080B584B057
:1022B00000AF03463960FB710023FB73FB79002BF1
:1022C00002D0012B07D074E0FB793C4A0121D154A4
:1022D0000123FB736DE03A4B3A4A1A60384A3B6877
:1022E0005360374B00229A60354B0022DA60344B42
:1022F00000221A61324B0C225A61314B00229A6142
:102300002F4B0022DA612E4803F095FBFB791B016D
:102310002D4A13444FF480722C491846FEF77DFE77
:102320002B4B5B692A4A43F001035361284B5B69DD
:1023300003F00103BB60BB68002200210F2000F006
:102340007AFB0F2000F093FB1D4803F027FB0346A8
:10235000002B02D00023FB732AE00123FB73FB79DF
:10236000164A0121D1544FF480721849144803F0E1
:1023700021FC0346002B01D00023FB73FB79124A9A
:102380001B01134408331968124B1B685A68FB7908
:102390008A1A0D491B010B441A60FA79FB790A4924
:1023A00012010A44126808491B010B4404331A60E5
:1023B00000BFFB7B18461037BD4680BD940500204A
:1023C000D80C00200038014098050020B8050020F6
:1023D00000100240940C002080B584B000AF03468A
:1023E000FB710023FB60FB79002B02D0012B04D092
:1023F0001BE007F045FCF86017E0FB790D4A1B0174
:102400001344083319680C4B1B685A68FB798A1A05
:1024100008491B010B441A60FB791B01054A134450
:102420001846FEF750FEF86000BFFB6818461037EC
:10243000BD4680BD98050020940C002080B584B076
:1024400000AF0346FB710023FB73FB79002B02D026
:10245000012B05D00FE007F02FFC0346FB730AE0C9
:10246000FB791B01064A134407F10F0101221846AC
:10247000FEF7EDFD00BFFB7B18461037BD4680BD63
:102480009805002080B586B000AF0346B9607A6039
:10249000FB7300237B61FB7B002B02D0012B06D05A
:1024A00014E07968B86807F059FC78610EE07B6841
:1024B0009AB26423B968084803F0E9FA0346FB744A
:1024C000FB7C002B01D17B687B6100BF7B691846D8
:1024D0001837BD4680BD00BFD80C00200EB480B5B3
:1024E000C7B000AF0246FB1D1A7007F5947207F1E2
:1024F0000C031A6007F10C0307F110001B68D7F8F2
:1025000024214FF4807109F0FFF8C7F81401D7F8BF
:10251000142107F11001FB1D1B781846FFF7B2FFCD
:10252000C7F81001D7F81031184607F58E77BD4669
:10253000BDE8804003B0704780B483B000AF7860DE
:1025400000BF0C37BD4680BC704780B483B000AF7D
:10255000786000BF0C37BD4680BC704780B588B03E
:1025600000AF786007F1100300221A605A609A6089
:10257000DA607B681B68334A93425FD1324B9B69B8
:10258000314A43F4804393612F4B9B6903F48043AA
:10259000FB60FB682C4B9B692B4A43F0040393615F
:1025A000294B9B6903F00403BB60BB684FF40073C5
:1025B0003B6102237B610323FB6107F11003194692
:1025C000224800F03DFD4FF480633B6100237B61B6
:1025D0000023BB6107F1100319461C4800F030FDD1
:1025E0001B4B1C4A1A601A4B00225A60184B0022DF
:1025F0009A60174B8022DA60154B00221A61144B47
:1026000000225A61124B20229A61114B0022DA619A
:102610000F4800F055FA0346002B01D0FEF71BFCD3
:102620007B680B4A5A630A4A7B6853620022002186
:10263000252000F000FA252000F019FA00BF20370D
:10264000BD4680BD00380140001002400008014036
:10265000940C00205800024080B582B000AF786032
:102660007B681B680C4A934212D10C4B9B690B4A46
:1026700023F4804393614FF4C061094800F03AFEAF
:102680007B685B6B184600F075FA252000F0FDF9B9
:1026900000BF0837BD4680BD003801400010024031
:1026A0000008014080B586B000AF0123FB753B1DDB
:1026B00000221A605A609A60DA604FF480537B609F
:1026C0000123BB600023FB6002233B613B1D1946D5
:1026D0000F4800F0B5FC00224FF480510C4800F088
:1026E000C5FE6420FEF746FB01224FF480510848E6
:1026F00000F0BCFE0023BB603B1D1946044800F0FF
:102700009FFC07F08DFAFB7D18461837BD4680BD4B
:102710000008014080B500AFFEF706FBFEF7EAFCBB
:10272000FFF746FDFFF70EFDFFF78AFCFFF7BAFF44
:10273000FFF7A2FDFFF760FC00BF80BD80B500AFD2
:10274000084B1B68074A43F010031360032000F096
:1027500067F9002000F008F8FEF784FB0023184614
:1027600080BD00BF0020024080B582B000AF78601D
:10277000124B1A68124B1B7819464FF47A73B3FB4D
:10278000F1F3B2FBF3F3184600F08DF90346002B8A
:1027900001D001230EE07B680F2B0AD80022796854
:1027A0004FF0FF3000F047F9064A7B6813600023C2
:1027B00000E0012318460837BD4680BD0000002018
:1027C0000C0000200800002080B400AF054B1B78EF
:1027D0001A46054B1B681344034A136000BFBD46ED
:1027E00080BC70470C000020180D002080B400AFA2
:1027F000024B1B681846BD4680BC7047180D002070
:1028000080B584B000AF7860FFF7F0FFB8607B68F8
:10281000FB60FB68B3F1FF3F05D0094B1B781A46FC
:10282000FB681344FB6000BFFFF7E0FF0246BB6894
:10283000D31AFA689A42F7D800BF1037BD4680BD58
:102840000C00002080B485B000AF78607B6803F096
:102850000703FB600C4BDB68BB60BA684FF6FF03F5
:102860001340BB60FB681A02BB68134343F0BF63AD
:1028700043F40033BB60044ABB68D36000BF143725
:10288000BD4680BC704700BF00ED00E080B400AFE3
:10289000044BDB681B0A03F007031846BD4680BCE7
:1028A000704700BF00ED00E080B483B000AF034686
:1028B000FB7197F90730002B0BDBFB7903F01F024C
:1028C000064997F907305B09012000FA02F241F846
:1028D000232000BF0C37BD4680BC704700E100E0FC
:1028E00080B483B000AF0346FB7197F90730002B2B
:1028F00010DBFB7903F01F02094997F907305B09E8
:10290000012000FA02F2203341F82320BFF34F8F59
:10291000BFF36F8F00BF0C37BD4680BC704700BF50
:1029200000E100E080B483B000AF03463960FB7182
:1029300097F90730002B0ADB3B68DAB20C4997F9AC
:1029400007301201D2B20B4483F800230AE03B683F
:10295000DAB20849FB7903F00F03043B1201D2B24B
:102960000B441A7600BF0C37BD4680BC704700BFD1
:1029700000E100E000ED00E080B489B000AFF86055
:10298000B9607A60FB6803F00703FB61FB69C3F180
:102990000703042B28BF0423BB61FB690433062B08
:1029A00002D9FB69033B00E000237B614FF0FF325B
:1029B000BB6902FA03F3DA43BB681A407B699A40A9
:1029C0004FF0FF317B6901FA03F3D9437B680B4079
:1029D000134318462437BD4680BC704780B582B08B
:1029E00000AF78607B68013BB3F1807F01D30123A6
:1029F0000FE00A4A7B68013B53600F214FF0FF3024
:102A0000FFF790FF054B00229A60044B07221A60E3
:102A1000002318460837BD4680BD00BF10E000E027
:102A200080B582B000AF78607868FFF70BFF00BF19
:102A30000837BD4680BD80B586B000AF0346B9609B
:102A40007A60FB7300237B61FFF720FF78617A686F
:102A5000B9687869FFF790FF024697F90F30114681
:102A60001846FFF75FFF00BF1837BD4680BD80B531
:102A700082B000AF0346FB7197F907301846FFF7A5
:102A800013FF00BF0837BD4680BD80B582B000AFE0
:102A90000346FB7197F907301846FFF721FF00BF87
:102AA0000837BD4680BD80B582B000AF78607868D9
:102AB000FFF794FF034618460837BD4680BD000067
:102AC00080B485B000AF78600023FB607B68002B8A
:102AD00001D1012343E07B681B681A46224B134453
:102AE000224AA2FB03231B099A007B681A647B68B5
:102AF0001F4ADA637B68022283F821207B681B6807
:102B00001B68FB60FB6823F47F5323F03003FB60FA
:102B10007B685A687B689B681A437B68DB681A434A
:102B20007B681B691A437B685B691A437B689B69F6
:102B30001A437B68DB691343FA681343FB607B68C5
:102B40001B68FA681A607B6800229A637B6801221E
:102B500083F821207B68002283F820200023184678
:102B60001437BD4680BC7047F8FFFDBFCDCCCCCC40
:102B70000000024080B483B000AF78607B68002B17
:102B800001D1012346E07B681B681A687B681B68DB
:102B900022F001021A607B681B6800221A607B68C1
:102BA0001B6800225A607B681B6800229A607B6861
:102BB0001B680022DA607B681B681A46184B1344B6
:102BC000184AA2FB03231B099A007B681A647B68DE
:102BD000154ADA637B681A6C7B68DB6B012101FAAA
:102BE00002F25A607B6800229A627B680022DA62F5
:102BF0007B6800221A637B6800225A637B6800228C
:102C00009A637B68002283F821207B68002283F886
:102C10002020002318460C37BD4680BC704700BFFB
:102C2000F8FFFDBFCDCCCCCC0000024080B586B013
:102C300000AFF860B9607A603B600023FB75FB6809
:102C400093F82030012B01D102234AE0FB680122D6
:102C500083F82020FB6893F82130012B3AD1FB68E0
:102C6000022283F82120FB6800229A63FB681B681C
:102C70001A68FB681B6822F001021A603B687A68D8
:102C8000B968F86800F0AEF9FB68DB6A002B08D081
:102C9000FB681B681A68FB681B6842F00E021A602A
:102CA0000FE0FB681B681A68FB681B6822F00402CF
:102CB0001A60FB681B681A68FB681B6842F00A020E
:102CC0001A60FB681B681A68FB681B6842F0010207
:102CD0001A6005E0FB68002283F820200223FB75C0
:102CE000FB7D18461837BD4680BD000080B584B016
:102CF00000AF78600023FB737B6893F82130022BD0
:102D000005D07B6804229A630123FB7351E07B6842
:102D10001B681A687B681B6822F00E021A607B68C9
:102D20001B681A687B681B6822F001021A607B68C6
:102D30001B68224A934229D07B681B68204A934231
:102D400022D07B681B681F4A93421AD07B681B689D
:102D50001D4A934212D07B681B681C4A93420AD0DA
:102D60007B681B681A4A934202D14FF480130EE02D
:102D70004FF080730BE04FF4803308E04FF4805342
:102D800005E04FF4807302E0102300E00123114AB4
:102D900053607B68012283F821207B68002283F83E
:102DA00020207B685B6B002B03D07B685B6B7868B3
:102DB0009847FB7B18461037BD4680BD080002408F
:102DC0001C00024030000240440002405800024013
:102DD0006C0002400000024080B584B000AF786013
:102DE0007B68DB6B1B68FB607B681B681B68BB60D8
:102DF0007B681B6C04229A40FB681340002B4FD069
:102E0000BB6803F00403002B4AD07B681B681B6877
:102E100003F02003002B07D17B681B681A687B68CE
:102E20001B6822F004021A607B681B68664A9342A2
:102E300029D07B681B68654A934222D07B681B6857
:102E4000634A93421AD07B681B68624A934212D04D
:102E50007B681B68604A93420AD07B681B685F4AA4
:102E6000934202D14FF480030EE04FF080630BE0F9
:102E70004FF4802308E04FF4804305E04FF4806373
:102E800002E0402300E00423554A53607B68DB6A7C
:102E9000002B00F094807B68DB6A786898478EE0AE
:102EA0007B681B6C02229A40FB681340002B56D0B3
:102EB000BB6803F00203002B51D07B681B681B68C2
:102EC00003F02003002B0BD17B681B681A687B681A
:102ED0001B6822F00A021A607B68012283F8212015
:102EE0007B681B68384A934229D07B681B68374A45
:102EF000934222D07B681B68354A93421AD07B6884
:102F00001B68344A934212D07B681B68324A934252
:102F10000AD07B681B68314A934202D14FF40013F8
:102F20000EE04FF000730BE04FF4003308E04FF475
:102F3000005305E04FF4007302E0202300E0022379
:102F4000274A53607B68002283F820207B689B6AB5
:102F5000002B34D07B689B6A786898472FE07B68A9
:102F60001B6C08229A40FB681340002B28D0BB68DA
:102F700003F00803002B23D07B681B681A687B686A
:102F80001B6822F00E021A607B681A6C7B68DB6B90
:102F9000012101FA02F25A607B6801229A637B6880
:102FA000012283F821207B68002283F820207B689F
:102FB0001B6B002B04D07B681B6B7868984700BFA5
:102FC00000BF1037BD4680BD080002401C00024013
:102FD0003000024044000240580002406C000240B1
:102FE0000000024080B485B000AFF860B9607A603C
:102FF0003B60FB681A6CFB68DB6B012101FA02F293
:103000005A60FB681B683A685A60FB685B68102B63
:1030100008D1FB681B687A689A60FB681B68BA680D
:10302000DA6007E0FB681B68BA689A60FB681B6897
:103030007A68DA6000BF1437BD4680BC7047000074
:1030400080B48BB000AF7860396000237B620023CE
:103050003B6227E101227B6A02FA03F3FB613B68D2
:103060001B68FA691340BB61BA69FB699A4240F078
:1030700016813B685B68122B34D0122B0DD8022BC3
:103080002BD0022B04D8002B31D0012B1CD048E0D0
:10309000032B43D0112B1BD043E0894A934226D007
:1030A000874A934206D8874A934220D0864A934261
:1030B0001DD036E0854A934219D0854A934216D0F6
:1030C000844A934213D02CE03B68DB683B6228E0E3
:1030D0003B68DB6804333B6223E03B68DB68083312
:1030E0003B621EE03B68DB680C333B6219E03B68E7
:1030F0009B68002B02D104233B6212E03B689B6873
:10310000012B05D108233B627B68FA691A6108E04C
:1031100008233B627B68FA695A6102E000233B6244
:1031200000BFBB69FF2B01D87B6801E07B680433DB
:103130007B61BB69FF2B02D87B6A9B0002E07B6A44
:10314000083B9B003B617B691A680F213B6901FAD0
:1031500003F3DB431A40396A3B6901FA03F31A436C
:103160007B691A603B685B6803F08053002B00F0BA
:103170009680594B9B69584A43F001039361564B23
:103180009B6903F00103BB60BB68544A7B6A9B08E0
:10319000023352F82330FB607B6A03F003039B0089
:1031A0000F2202FA03F3DB43FA681340FB607B68EB
:1031B0004B4A934213D07B684A4A93420DD07B68B6
:1031C000494A934207D07B68484A934201D103237E
:1031D00006E0042304E0022302E0012300E00023D0
:1031E0007A6A02F0030292009340FA681343FB608C
:1031F0003A497B6A9B080233FA6841F823203B680E
:103200005B6803F48033002B06D0394B1A683849C9
:10321000BB6913430B6006E0354B1A68BB69DB439F
:10322000334913400B603B685B6803F40033002BA9
:1032300006D02F4B5A682E49BB6913434B6006E0FA
:103240002B4B5A68BB69DB43294913404B603B68F1
:103250005B6803F48013002B06D0254B9A68244941
:10326000BB6913438B6006E0214B9A68BB69DB4363
:103270001F4913408B603B685B6803F40013002B0D
:1032800006D01B4BDA681A49BB691343CB6006E0D2
:10329000174BDA68BB69DB4315491340CB607B6A87
:1032A00001337B623B681A687B6A22FA03F3002BC6
:1032B0007FF4D0AE00BF2C37BD4680BC704700BF46
:1032C0000000211000001110000012100000311049
:1032D00000003210000022100010024000000140E7
:1032E00000080140000C01400010014000140140A2
:1032F0000004014080B489B000AF786039600023D9
:10330000FB619AE00122FB6902FA03F33A68134079
:10331000BB61BB69002B00F08D804E4AFB699B08A6
:10332000023352F823307B61FB6903F003039B00F7
:103330000F2202FA03F37A6913407B617B68464AE5
:10334000934213D07B68454A93420DD07B68444A30
:10335000934207D07B68434A934201D1032306E09E
:10336000042304E0022302E0012300E00023FA69C1
:1033700002F00302920093407A699A4232D1FB69CB
:1033800003F003039B000F2202FA03F37B61314A2F
:10339000FB699B08023352F823107B69DA432D48FE
:1033A000FB699B080A40023340F823202E4B1A6821
:1033B000BB69DB432C4913400B602B4B5A68BB693C
:1033C000DB43294913404B60274B9A68BB69DB43B9
:1033D000254913408B60244BDA68BB69DB432249E3
:1033E0001340CB60BB69FF2B01D87B6801E07B6891
:1033F00004333B61BB69FF2B02D8FB699B0002E0F1
:10340000FB69083B9B00FB603B691A680F21FB6866
:1034100001FA03F3DB431A400421FB6801FA03F3CA
:103420001A433B691A607B68DA68BB69DB431A4060
:103430007B68DA60FB690133FB613A68FB6922FA59
:1034400003F3002B7FF45EAF00BF2437BD4680BC82
:10345000704700BF0000014000080140000C01401F
:1034600000100140001401400004014080B483B00A
:1034700000AF78600B467B8013467B707B78002B17
:1034800003D07A887B681A6103E07B881A047B6822
:103490001A6100BF0C37BD4680BC704780B485B050
:1034A00000AF78600B467B807B68DB68FB607A88C6
:1034B000FB6813401A04FB68D9437B880B401A430E
:1034C0007B681A6100BF1437BD4680BC7047F0B5F9
:1034D0008BB006AF78607B68002B01D10123FDE043
:1034E0007B6893F8A932DBB2002B06D17B680022FF
:1034F00083F8A822786806F0BBFE7B68032283F875
:10350000A9227B681B68184602F09EFF7B681B6837
:103510003B607E686D4606F110040FCC0FC5236832
:103520002B60331D0ECB386802F068FF0346002B7A
:1035300005D07B68022283F8A9220123CEE07B68B4
:103540001B680021184602F099FF0023FB734CE032
:10355000FB7B79685A1C13469B001344DB000B4429
:10356000013301221A70FB7B79685A1C13469B00B9
:103570001344DB000B44FA7B1A70FA7BFB7B98B296
:10358000796813469B001344DB000B443633024634
:103590001A80FB7B79685A1C13469B001344DB009E
:1035A0000B44033300221A70FA7B796813469B00A0
:1035B0001344DB000B44383300221A60FA7B79682D
:1035C00013469B001344DB000B443C3300221A607B
:1035D000FA7B796813469B001344DB000B444033AD
:1035E00000221A60FB7B0133FB73FA7B7B685B680C
:1035F0009A42ADD30023FB7344E0FA7B796813460B
:103600009B001344DB000B4403F2691300221A7081
:10361000FA7B796813469B001344DB000B4403F5E7
:10362000B473FA7B1A70FA7B796813469B001344D3
:10363000DB000B4403F26B1300221A70FA7B7968EB
:1036400013469B001344DB000B4403F5BC730022BC
:103650001A60FA7B796813469B001344DB000B4425
:1036600003F5BE7300221A60FA7B796813469B004B
:103670001344DB000B4403F5C07300221A60FB7B8C
:103680000133FB73FA7B7B685B689A42B5D37B6836
:103690001B683B607E686D4606F110040FCC0FC5B9
:1036A00023682B60331D0ECB386802F0F3FE03460F
:1036B000002B05D07B68022283F8A92201230DE0AC
:1036C0007B68002283F824207B68012283F8A922EA
:1036D0007B681B68184604F08DFE002318461437DB
:1036E000BD46F0BD80B582B000AF78607B6893F8CE
:1036F000A832012B01D1022316E07B68012283F856
:10370000A8227B681B68184602F088FE01217868B1
:1037100007F021F87B681B68184604F061FE7B689F
:10372000002283F8A822002318460837BD4680BD32
:1037300080B588B000AF78607B681B68184604F0DD
:1037400063FE034603F40043B3F5004F02D17868EB
:1037500000F061FB7B681B68184604F055FE0346C9
:1037600003F48063B3F5806F12D17B681B68B3F8F4
:1037700044309AB27B681B6822F4806292B2A3F84C
:103780004420786806F0EFFD0021786800F025F904
:103790007B681B68184604F037FE034603F4804339
:1037A000B3F5804F0BD17B681B68B3F844309AB2F5
:1037B0007B681B6822F4804292B2A3F844207B68A5
:1037C0001B68184604F020FE034603F40053B3F5CB
:1037D000005F0BD17B681B68B3F844309AB27B68FA
:1037E0001B6822F4005292B2A3F844207B681B6845
:1037F000184604F009FE034603F48053B3F5805FD6
:1038000026D17B681B68B3F840309AB27B681B688E
:1038100022F0040292B2A3F840207B681B68B3F840
:1038200040309AB27B681B6822F0080292B2A3F87B
:103830004020786806F0D0FD7B681B68B3F8443000
:103840009AB27B681B6822F4805292B2A3F844209B
:103850007B681B68184604F0D7FD034603F4006339
:10386000B3F5006F40F084800023FB7711E07B68A4
:103870001B681A46FB7F9B001A44FB7F128892B29A
:103880005B0007F120010B4423F8142CFB7F01336C
:10389000FB77FB7F072BEAD97B681B68B3F84030C6
:1038A0009AB27B681B6842F0010292B2A3F84020F2
:1038B0007B681B68B3F840309AB27B681B6822F0C3
:1038C000010292B2A3F8402000BF7B681B68B3F8E6
:1038D00044309BB203F48063002BF6D07B681B68F6
:1038E000B3F844309AB27B681B6822F4806292B2CB
:1038F000A3F844200023FB7710E0FB7F7A6812686E
:103900001146FA7F92000A445B0007F120010B4444
:1039100033F8143C1380FB7F0133FB77FB7F072BCD
:10392000EBD97B681B68B3F840309AB27B681B68A0
:1039300042F0080292B2A3F840207B681B68B3F8FB
:1039400044309AB27B681B6822F4006292B2A3F8FA
:1039500044207B681B68B3F840309AB27B681B68D0
:1039600042F0040292B2A3F84020786806F01AFDF3
:103970007B681B68184604F047FD034603F4007398
:10398000B3F5007F0ED17B681B68B3F844309AB260
:103990007B681B6822F4007292B2A3F84420786816
:1039A00006F0D3FC7B681B68184604F02DFD034627
:1039B00003F48073B3F5807F0BD17B681B68B3F889
:1039C00044309AB27B681B6822F4807292B2A3F8EA
:1039D000442000BF2037BD4680BD80B582B000AF17
:1039E00078600B46FB707B6893F8A832012B01D1FD
:1039F000022313E07B68012283F8A8227B68FA780F
:103A000083F824207B681B68FA781146184604F076
:103A1000D4FC7B68002283F8A822002318460837CC
:103A2000BD4680BD80B584B000AF786008461146C1
:103A30001A460346FB700B463B801346BB700023BF
:103A4000FB7297F90330002B0EDAFB7803F00703C3
:103A50005A1C13469B001344DB007A681344FB6036
:103A6000FB6801225A700EE0FB7803F00702134650
:103A70009B001344DB0003F5B4737A681344FB60C6
:103A8000FB6800225A70FB7803F00703DAB2FB6888
:103A90001A703A88FB681A61FB68BA78DA70FB68BA
:103AA0005B78002B04D0FB681B789AB2FB68DA8144
:103AB000BB78022B02D1FB6800221A717B6893F855
:103AC000A832012B01D102230EE07B68012283F88A
:103AD000A8227B681B68F968184602F0FBFC7B682B
:103AE000002283F8A822FB7A18461037BD4680BD15
:103AF00080B584B000AF78600B46FB7097F9033057
:103B0000002B0EDAFB7803F007035A1C13469B00C8
:103B10001344DB007A681344FB60FB6801225A708F
:103B20000EE0FB7803F0070213469B001344DB0012
:103B300003F5B4737A681344FB60FB6800225A7083
:103B4000FB7803F00703DAB2FB681A707B6893F81E
:103B5000A832012B01D102230EE07B68012283F8F9
:103B6000A8227B681B68F968184603F01DF87B687B
:103B7000002283F8A822002318461037BD4680BDD6
:103B800080B586B000AFF8607A603B600B46FB7290
:103B9000FB7A03F0070213469B001344DB0003F596
:103BA000B473FA6813447B617B697A685A617B69F4
:103BB0003A689A617B690022DA617B6900225A7057
:103BC000FB7A03F00703DAB27B691A70FB7A03F021
:103BD0000703002B06D1FB681B687969184603F0C0
:103BE000CFF905E0FB681B687969184603F0C8F94E
:103BF000002318461837BD4680BD80B483B000AF9F
:103C000078600B46FB70FB7803F007027968134677
:103C10009B001344DB000B4403F5C2731B6818467A
:103C20000C37BD4680BC704780B586B000AFF860E9
:103C30007A603B600B46FB72FB7A03F007035A1C69
:103C400013469B001344DB00FA6813447B617B69D5
:103C50007A685A617B693A689A617B69012283F8C4
:103C600024207B693A681A627B690022DA617B69E9
:103C700001225A70FB7A03F00703DAB27B691A70EB
:103C8000FB7A03F00703002B06D1FB681B687969F8
:103C9000184603F075F905E0FB681B68796918465A
:103CA00003F06EF9002318461837BD4680BD80B575
:103CB00084B000AF78600B46FB70FB7803F007021E
:103CC0007B685B689A4201D901234CE097F9033085
:103CD000002B0EDAFB7803F007035A1C13469B00F7
:103CE0001344DB007A681344FB60FB6801225A70BE
:103CF0000CE0FA7813469B001344DB0003F5B47321
:103D00007A681344FB60FB6800225A70FB6801224A
:103D10009A70FB7803F00703DAB2FB681A707B68CD
:103D200093F8A832012B01D102231CE07B68012209
:103D300083F8A8227B681B68F968184604F040FAEB
:103D4000FB7803F00703002B08D17B681A687B68B7
:103D500003F52C731946104604F065FB7B680022BE
:103D600083F8A822002318461037BD4680BD80B5D1
:103D700084B000AF78600B46FB70FB7803F00F0255
:103D80007B685B689A4201D9012340E097F90330D0
:103D9000002B0EDAFB7803F007035A1C13469B0036
:103DA0001344DB007A681344FB60FB6801225A70FD
:103DB0000EE0FB7803F0070213469B001344DB0080
:103DC00003F5B4737A681344FB60FB6800225A70F1
:103DD000FB6800229A70FB7803F00703DAB2FB68F5
:103DE0001A707B6893F8A832012B01D102230EE0F0
:103DF0007B68012283F8A8227B681B68F968184653
:103E000004F02EFA7B68002283F8A82200231846CB
:103E10001037BD4680BD80B58EB000AF7860DFE260
:103E20007B681B68B3F84430FB85FB8DDBB203F085
:103E30000F0387F82D3097F82D30002B40F0588174
:103E4000FB8D03F01003002B52D17B681B681B888D
:103E50009BB223F4E14323F07003FB817B681A6873
:103E6000FB896FEA43436FEA53439BB213807B683D
:103E700028337B627B681B68B3F850309BB21A46CC
:103E80007B6A1B78DB00134402335B007A6812689C
:103E9000134403F580631B88C3F309027B6ADA616C
:103EA0007B6A5A697B6ADB691A447B6A5A61002122
:103EB000786806F030FA7B6893F82430DBB2002B88
:103EC00000F08E827B6A9B69002B40F089827B68C0
:103ED00093F82430DBB263F07F03DAB27B681B68AF
:103EE00092B2A3F84C207B68002283F8242077E26A
:103EF0007B6803F5B4737B627B681B681B887B85DA
:103F00007B8D03F40063002B34D07B681B68B3F80F
:103F100050309BB21A467B6A1B78DB001344063391
:103F20005B007A681268134403F580631B88C3F34F
:103F300009027B6ADA617B6818687B6803F52C717B
:103F40007B6ADA887B6ADB699BB204F0BBFA7B6828
:103F50001B681B889AB240F68F7313403B827B68C4
:103F60001B683A8A42F0800292B21A80786806F0A2
:103F7000A5F935E2B7F92A30002B80F231827B684F
:103F80001B681B889AB240F68F731340BB837B6813
:103F90001B68BA8B42F0800292B21A807B681B6861
:103FA000B3F850309BB21A467B6A1B78DB0013448F
:103FB00006335B007A681268134403F580631B883C
:103FC000C3F309027B6ADA617B6ADB69002B19D0D3
:103FD0007B6A5B69002B15D07B6818687B6A59691E
:103FE0007B6ADA887B6ADB699BB204F06BFA7B6AD6
:103FF0005A697B6ADB691A447B6A5A6100217868D6
:1040000006F06EF97B681B68BB617B681B68B3F8C0
:1040100050309BB21A46BB691344BB61BB6903F2C3
:104020000C437B617B6A1B69002B12D17B691B8867
:104030009BB223F4F8439AB27B691A807B691B8890
:104040009BB26FEA43436FEA53439AB27B691A808B
:104050002FE07B6A1B693E2B13D87B6A1B695B08C8
:104060003B637B6A1B6903F00103002B02D03B6BAF
:1040700001333B633B6B9BB29B029AB27B691A8014
:1040800017E07B6A1B695B093B637B6A1B6903F072
:104090001F03002B02D13B6B013B3B633B6B9BB28D
:1040A0009B029BB26FEA43436FEA53439AB27B6928
:1040B0001A807B681B681B889BB223F4804323F023
:1040C00070037B827B8A83F480537B827B8A83F4B8
:1040D00000537B827B681A687B8A43F07F4343F4FA
:1040E0007F0343F4004343F080039BB2138077E1E6
:1040F0007B681B681A4697F82D309B0013441B8879
:104100007B85B7F92A30002B80F2EA807B681B6838
:104110001A4697F82D309B0013441B889AB240F63C
:104120008F7313403B857B681B681A4697F82D30C8
:104130009B0013443A8D42F0800292B21A8097F8A5
:104140002D2013469B001344DB0003F5B4737A68FB
:1041500013447B627B6A1B7B002B22D17B681B682C
:10416000B3F850309BB21A467B6A1B78DB001344CD
:1041700006335B007A681268134403F580631B887A
:10418000C3F30903FB86FB8E002B00F087807B685E
:1041900018687B6A59697B6ADA88FB8E04F092F9A9
:1041A0007CE07B6ADB78022B08D17B8D1A46796A2A
:1041B000786800F023F90346FB866FE07B681B6894
:1041C0001A467B6A1B789B0013441B889BB223F41E
:1041D000E04323F070037B847B681B681A467B6A8C
:1041E0001B789B001A447B8C43F07F4343F47F038E
:1041F00043F4004343F0C0039BB213807B681B6809
:104200001A467B6A1B789B0013441B889BB203F4FD
:104210008043002B21D07B681B68B3F850309BB2E1
:104220001A467B6A1B78DB00134402335B007A6812
:104230001268134403F580631B88C3F30903FB86EC
:10424000FB8E002B2AD07B6818687B6A59697B6AD1
:104250001A89FB8E04F036F920E07B681B68B3F8FE
:1042600050309BB21A467B6A1B78DB00134406333E
:104270005B007A681268134403F580631B88C3F3FC
:104280000903FB86FB8E002B08D07B6818687B6ACD
:1042900059697B6A5A89FB8E04F014F97B6ADA69E2
:1042A000FB8E1A447B6ADA617B6A5A69FB8E1A4478
:1042B0007B6A5A617B6A9B69002B04D0FA8E7B6A09
:1042C0001B699A4206D27B6A1B781946786806F009
:1042D00007F805E07B681B68796A184602F050FE13
:1042E0007B8D03F08003002B7AD097F82D305A1C79
:1042F00013469B001344DB007A6813447B627B689F
:104300001B681A4697F82D309B0013441B889BB2FC
:1043100023F4E14323F070033B847B681B681A4657
:1043200097F82D309B001A443B8C6FEA43436FEAA9
:1043300053439BB213807B6ADB78022B08D17B6AE4
:10434000DB78022B46D17B8D03F48073002B41D1A7
:104350007B681B68B3F850309BB21A467B6A1B78A7
:10436000DB00134402335B007A681268134403F5E0
:1043700080631B88C3F30903FB837B6A9A69FB8B09
:104380009A4206D97B6A9A69FB8BD21A7B6A9A6138
:1043900002E07B6A00229A617B6A9B69002B06D14E
:1043A0007B6A1B781946786805F0B5FF18E07B6AD0
:1043B0005A69FB8B1A447B6A5A617B6ADA69FB8B08
:1043C0001A447B6ADA617B681B68796A184602F0D6
:1043D000D7FD05E07B8D1A46796A786800F01BF9F5
:1043E0007B681B68B3F844309BB21BB2002BFFF60E
:1043F00017AD002318463837BD4680BD80B588B05C
:1044000000AFF860B9601346FB80FB8803F480437B
:10441000002B7ED0FB681B68B3F850309BB21A4665
:10442000BB681B78DB00134402335B00FA68126838
:10443000134403F580631B88C3F309037B83BB68C4
:104440009A697B8B9A4206D3BB689A697B8BD21A96
:10445000BB689A6102E0BB6800229A61BB689B69F5
:10446000002B23D1FB681B681A46BB681B789B0096
:1044700013441B889BB223F4804323F070033B83D7
:104480003B8B83F400533B83FB681B681A46BB6875
:104490001B789B001A443B8B43F07F4343F47F031C
:1044A00043F4004343F080039BB21380FB8803F086
:1044B0004003002B1FD0FB681B681A46BB681B78A3
:1044C0009B0013441B889BB223F4E04323F070034A
:1044D000FB82FB681B681A46BB681B789B001A446A
:1044E000FB8A43F07F4343F47F0343F4004343F0EC
:1044F000C0039BB213807B8B002B00F08780FB688E
:104500001868BB685969BB681A897B8B03F0DAFFAE
:104510007CE0FB681B68B3F850309BB21A46BB685E
:104520001B78DB00134406335B00FA6812681344FF
:1045300003F580631B88C3F309037B83BB689A6917
:104540007B8B9A4206D3BB689A697B8BD21ABB6875
:104550009A6102E0BB6800229A61BB689B69002BEC
:1045600023D1FB681B681A46BB681B789B00134469
:104570001B889BB223F4804323F07003FB83FB8BE7
:1045800083F40053FB83FB681B681A46BB681B78E7
:104590009B001A44FB8B43F07F4343F47F0343F4B7
:1045A000004343F080039BB21380FB8803F0400379
:1045B000002B1FD1FB681B681A46BB681B789B0049
:1045C00013441B889BB223F4E04323F07003BB83A6
:1045D000FB681B681A46BB681B789B001A44BB8BA0
:1045E00043F07F4343F47F0343F4004343F0C003AD
:1045F0009BB213807B8B002B08D0FB681868BB68CC
:104600005969BB685A897B8B03F05CFF7B8B18462A
:104610002037BD4680BD80B592B000AFF860B9606C
:104620001346FB80FB8803F04003002B00F032812F
:10463000FB681B68B3F850309BB21A46BB681B7806
:10464000DB00134402335B00FA681268134403F57D
:1046500080631B88C3F30903FB85BB689A69FB8DE4
:104660009A4206D9BB689A69FB8DD21ABB689A61D7
:1046700002E0BB6800229A61BB689B69002B2CD1C9
:10468000BB681B781946F86805F045FEFB8803F403
:104690008043002B00F02F82FB681B681A46BB6822
:1046A0001B789B0013441B889BB223F4E04323F048
:1046B00070037B82FB681B681A46BB681B789B00F3
:1046C0001A447B8A43F07F4343F47F0343F440431F
:1046D00043F080039BB213800DE2FB8803F4804318
:1046E000002B1FD0FB681B681A46BB681B789B0019
:1046F00013441B889BB223F4E04323F07003BB8474
:10470000FB681B681A46BB681B789B001A44BB8C6D
:1047100043F07F4343F47F0343F4404343F080037B
:104720009BB21380BB6893F82430012B40F0E381E7
:10473000BB685A69FB8D1A44BB685A61BB68DA6969
:10474000FB8D1A44BB68DA61BB681A6ABB681B69D7
:104750009A4209D3BB681B69BB63BB681A6ABB6B0F
:10476000D21ABB681A6214E0BB681B6A002B06D120
:10477000FB8DBB63BB68002283F8242009E0BB6883
:10478000002283F82420BB681B6ABB63BB6800223D
:104790001A62BB685B78002B55D1FB681B68BB6154
:1047A000FB681B68B3F850309BB21A46BB691344D0
:1047B000BB61BB681B781A01BB69134403F2044355
:1047C0007B61BB6B002B12D17B691B889BB223F4EE
:1047D000F8439AB27B691A807B691B889BB26FEAA7
:1047E00043436FEA53439AB27B691A8047E0BB6B3D
:1047F0003E2B11D8BB6B5B08BB62BB6B03F00103A4
:10480000002B02D0BB6A0133BB62BB6A9BB29B0226
:104810009AB27B691A8032E0BB6B5B09BB62BB6BEF
:1048200003F01F03002B02D1BB6A013BBB62BB6AD2
:104830009BB29B029BB26FEA43436FEA53439AB227
:104840007B691A801BE0BB685B78012B17D1FB6882
:104850001B683B62FB681B68B3F850309BB21A467A
:104860003B6A13443B62BB681B781A013B6A1344E2
:1048700003F20443FB61BB6B9AB2FB691A80FB68CD
:104880001868BB685969BB681A89BB6B9BB203F097
:10489000D5FD30E1FB681B68B3F850309BB21A4677
:1048A000BB681B78DB00134406335B00FA681268B0
:1048B000134403F580631B88C3F30903FB85BB68BE
:1048C0009A69FB8D9A4206D3BB689A69FB8DD21A0E
:1048D000BB689A6102E0BB6800229A61BB689B6971
:1048E000002B2CD1BB681B781946F86805F013FD26
:1048F000FB8803F48043002B40F0FD80FB681B68BD
:104900001A46BB681B789B0013441B889BB223F498
:10491000E04323F07003FB84FB681B681A46BB6806
:104920001B789B001A44FB8C43F07F4343F47F03C6
:1049300043F4404343F080039BB21380DBE0FB88E9
:1049400003F48043002B1FD1FB681B681A46BB6829
:104950001B789B0013441B889BB223F4E04323F095
:104960007003BB85FB681B681A46BB681B789B00FD
:104970001A44BB8D43F07F4343F47F0343F4404329
:1049800043F080039BB21380BB6893F82430012B63
:1049900040F0B180BB685A69FB8D1A44BB685A610C
:1049A000BB68DA69FB8D1A44BB68DA61BB681A6AB6
:1049B000BB681B699A4209D3BB681B69BB63BB68B0
:1049C0001A6ABB6BD21ABB681A6214E0BB681B6A16
:1049D000002B06D1FB8DBB63BB68002283F824202B
:1049E00009E0BB681B6ABB63BB6800221A62BB6834
:1049F000002283F82420FB681B687B63BB685B781C
:104A0000002B55D1FB681B687B64FB681B68B3F8FF
:104A100050309BB21A467B6C13447B64BB681B7896
:104A20001A017B6C134403F20C433B64BB6B002BF9
:104A300012D13B6C1B889BB223F4F8439AB23B6CB7
:104A40001A803B6C1B889BB26FEA43436FEA534367
:104A50009AB23B6C1A8044E0BB6B3E2B11D8BB6B07
:104A60005B08FB63BB6B03F00103002B02D0FB6B05
:104A70000133FB63FB6B9BB29B029AB23B6C1A80C7
:104A80002FE0BB6B5B09FB63BB6B03F01F03002BC9
:104A900002D1FB6B013BFB63FB6B9BB29B029BB2A6
:104AA0006FEA43436FEA53439AB23B6C1A8018E0B3
:104AB000BB685B78012B14D1FB681B68B3F85030DE
:104AC0009BB21A467B6B13447B63BB681B781A014D
:104AD0007B6B134403F20C433B63BB6B9AB23B6B9F
:104AE0001A80FB681868BB685969BB685A89BB6B38
:104AF0009BB203F0A3FCFB681B681A46BB681B78DB
:104B00009B0013441B889BB223F4E04323F0400333
:104B10003B823B8A83F010033B823B8A83F0200375
:104B20003B82FB681B681A46BB681B789B001A44D3
:104B30003B8A43F07F4343F47F0343F4004343F055
:104B400080039BB21380002318464837BD4680BDC2
:104B500080B487B000AFF8607B600B467B81134662
:104B60003B817B8903F080039BB2002B0BD07B89B8
:104B700003F007035A1C13469B001344DB00FA683A
:104B800013447B6109E07A8913469B001344DB00E0
:104B900003F5B473FA6813447B613B89002B07D19A
:104BA0007B6900221A737B689AB27B69DA800BE01A
:104BB0007B6901221A737B689AB27B691A817B68D0
:104BC0001B0C9AB27B695A81002318461C37BD46DC
:104BD00080BC704780B400AF034B01221A6000BF55
:104BE000BD4680BC704700BF20000E4280B586B035
:104BF00000AF78607B68002B01D101236CE27B68F9
:104C00001B6803F00103002B00F08780924B5B6868
:104C100003F00C03042B0CD08F4B5B6803F00C03E8
:104C2000082B12D18C4B5B6803F48033B3F5803FC3
:104C30000BD1894B1B6803F40033002B6CD07B68CD
:104C40005B68002B68D1012346E27B685B68B3F5A3
:104C5000803F06D1804B1B687F4A43F4803313604A
:104C60002EE07B685B68002B0CD17B4B1B687A4A7B
:104C700023F480331360784B1B68774A23F4802336
:104C800013601DE07B685B68B3F5A02F0CD1724BFD
:104C90001B68714A43F4802313606F4B1B686E4A94
:104CA00043F4803313600BE06B4B1B686A4A23F4B8
:104CB00080331360684B1B68674A23F480231360BA
:104CC0007B685B68002B13D0FDF790FD386108E02E
:104CD000FDF78CFD02463B69D31A642B01D90323EF
:104CE000FAE15D4B1B6803F40033002BF0D014E0B5
:104CF000FDF77CFD386108E0FDF778FD02463B6971
:104D0000D31A642B01D90323E6E1534B1B6803F448
:104D10000033002BF0D100E000BF7B681B6803F07C
:104D20000203002B63D04C4B5B6803F00C03002B99
:104D30000BD0494B5B6803F00C03082B1CD1464B8E
:104D40005B6803F48033002B16D1434B1B6803F0E0
:104D50000203002B05D07B681B69012B01D00123C6
:104D6000BAE13D4B1B6823F0F8027B685B69DB000E
:104D7000394913430B603AE07B681B69002B20D054
:104D8000364B01221A60FDF731FD386108E0FDF76E
:104D90002DFD02463B69D31A022B01D903239BE167
:104DA0002D4B1B6803F00203002BF0D02A4B1B682D
:104DB00023F0F8027B685B69DB00274913430B6033
:104DC00015E0264B00221A60FDF710FD386108E05F
:104DD000FDF70CFD02463B69D31A022B01D90323D0
:104DE0007AE11D4B1B6803F00203002BF0D17B68B6
:104DF0001B6803F00803002B3AD07B689B69002BEB
:104E000019D0174B01221A60FDF7F0FC386108E059
:104E1000FDF7ECFC02463B69D31A022B01D90323B0
:104E20005AE10D4B5B6A03F00203002BF0D0012026
:104E300000F0DAFA1CE00A4B00221A60FDF7D6FCFB
:104E400038610FE0FDF7D2FC02463B69D31A022B12
:104E500008D9032340E100BF001002400000424295
:104E6000800442429E4B5B6A03F00203002BE9D1AF
:104E70007B681B6803F00403002B00F0A68000236E
:104E8000FB75974BDB6903F08053002B0DD1944BDE
:104E9000DB69934A43F08053D361914BDB6903F0A4
:104EA0008053BB60BB680123FB758E4B1B6803F40A
:104EB0008073002B18D18B4B1B688A4A43F4807394
:104EC0001360FDF793FC386108E0FDF78FFC0246A4
:104ED0003B69D31A642B01D90323FDE0814B1B6886
:104EE00003F48073002BF0D07B68DB68012B06D1C4
:104EF0007B4B1B6A7A4A43F0010313622DE07B6807
:104F0000DB68002B0CD1764B1B6A754A23F001033A
:104F10001362734B1B6A724A23F0040313621CE092
:104F20007B68DB68052B0CD16D4B1B6A6C4A43F028
:104F3000040313626A4B1B6A694A43F0010313625C
:104F40000BE0674B1B6A664A23F001031362644B54
:104F50001B6A634A23F0040313627B68DB68002B3F
:104F600015D0FDF743FC38610AE0FDF73FFC02462F
:104F70003B69D31A41F28832934201D90323ABE053
:104F8000574B1B6A03F00203002BEED014E0FDF731
:104F90002DFC38610AE0FDF729FC02463B69D31A73
:104FA00041F28832934201D9032395E04C4B1B6AAE
:104FB00003F00203002BEED1FB7D012B05D1484B02
:104FC000DB69474A23F08053D3617B68DB69002BA0
:104FD00000F08180424B5B6803F00C03082B61D02A
:104FE0007B68DB69022B46D13F4B00221A60FDF73C
:104FF000FDFB386108E0FDF7F9FB02463B69D31A77
:10500000022B01D9032367E0354B1B6803F00073C3
:10501000002BF0D17B681B6AB3F5803F08D1304B81
:105020005B6823F400327B689B682D4913434B6017
:105030002B4B5B6823F474127B68196A7B685B6A8C
:105040000B43274913434B60274B01221A60FDF79E
:10505000CDFB386108E0FDF7C9FB02463B69D31A76
:10506000022B01D9032337E01D4B1B6803F00073AB
:10507000002BF0D02FE01C4B00221A60FDF7B6FB8E
:10508000386108E0FDF7B2FB02463B69D31A022BF8
:1050900001D9032320E0124B1B6803F00073002B9F
:1050A000F0D118E07B68DB69012B01D1012313E00B
:1050B0000B4B5B68FB60FB6803F480327B681B6A08
:1050C0009A4206D1FB6803F470127B685B6A9A42CD
:1050D00001D0012300E0002318461837BD4680BDEB
:1050E00000100240007000406000424280B584B071
:1050F00000AF786039607B68002B01D10123D0E0DC
:105100006A4B1B6803F007033A689A4210D9674B51
:105110001B6823F0070265493B6813430B60634B30
:105120001B6803F007033A689A4201D00123B8E0F4
:105130007B681B6803F00203002B20D07B681B6890
:1051400003F00403002B05D0594B5B68584A43F425
:10515000E06353607B681B6803F00803002B05D0F5
:10516000534B5B68524A43F460535360504B5B6847
:1051700023F0F0027B689B684D4913434B607B68CA
:105180001B6803F00103002B40D07B685B68012B98
:1051900007D1474B1B6803F40033002B15D10123C3
:1051A0007FE07B685B68022B07D1414B1B6803F0F3
:1051B0000073002B09D1012373E03D4B1B6803F002
:1051C0000203002B01D101236BE0394B5B6823F014
:1051D00003027B685B68364913434B60FDF706FBAF
:1051E000F8600AE0FDF702FB0246FB68D31A41F2C1
:1051F0008832934201D9032353E02D4B5B6803F0BF
:105200000C027B685B689B009A42EBD1274B1B68C2
:1052100003F007033A689A4210D2244B1B6823F02C
:10522000070222493B6813430B60204B1B6803F0C5
:1052300007033A689A4201D0012332E07B681B6879
:1052400003F00403002B08D0194B5B6823F4E062E1
:105250007B68DB68164913434B607B681B6803F06F
:105260000803002B09D0124B5B6823F460527B6863
:105270001B69DB000E4913434B6000F021F8014627
:105280000B4B5B681B0903F00F030A4AD35C21FA3E
:1052900003F3094A1360094B1B681846FDF764FACB
:1052A000002318461037BD4680BD00BF00200240D5
:1052B000001002400CD00008000000200800002070
:1052C00090B48AB000AF2A4B3C1D0FCB84E80F008E
:1052D000284B1B883B800023FB610023BB6100231C
:1052E0007B6200237B6100233B62234B5B68FB6195
:1052F000FB6903F00C03042B02D0082B03D02DE034
:105300001E4B3B622DE0FB699B0C03F00F0307F182
:105310002802134413F8243C7B61FB6903F48033B7
:10532000002B13D0144B5B685B0C03F0010307F1F7
:105330002802134413F8283CBB617B690F4A02FB27
:1053400003F2BB69B2FBF3F37B6204E07B690C4AB6
:1053500002FB03F37B627B6A3B6202E0074B3B622A
:1053600000BF3B6A18462837BD4690BC704700BF57
:105370009CCF0008ACCF00080010024000127A0059
:1053800000093D0080B400AF024B1B681846BD46C3
:1053900080BC70470000002080B500AFFFF7F2FF2F
:1053A0000146054B5B681B0A03F00703034AD35C05
:1053B00021FA03F3184680BD001002401CD00008FB
:1053C00080B500AFFFF7DEFF0146054B5B68DB0AE7
:1053D00003F00703034AD35C21FA03F3184680BDA8
:1053E000001002401CD0000880B485B000AF786087
:1053F0000A4B1B680A4AA2FB03235B0A7A6802FB7A
:1054000003F3FB6000BFFB685A1EFA60002BF9D162
:1054100000BF1437BD4680BC704700BF00000020AD
:10542000D34D621080B586B000AF786000233B6139
:105430000023FB607B681B6803F00103002B7DD019
:105440000023FB754F4BDB6903F08053002B0DD11C
:105450004C4BDB694B4A43F08053D361494BDB69CA
:1054600003F08053BB60BB680123FB75464B1B6890
:1054700003F48073002B18D1434B1B68424A43F45A
:1054800080731360FDF7B2F9386108E0FDF7AEF9FB
:1054900002463B69D31A642B01D903236DE03A4BD2
:1054A0001B6803F48073002BF0D0364B1B6A03F4A7
:1054B0004073FB60FB68002B2ED07B685B6803F4B5
:1054C0004073FA689A4227D02E4B1B6A23F440732C
:1054D000FB602E4B01221A602C4B00221A60294AD5
:1054E000FB681362FB6803F00103002B14D0FDF787
:1054F0007DF938610AE0FDF779F902463B69D31A74
:1055000041F28832934201D9032336E01D4B1B6AD6
:1055100003F00203002BEED01A4B1B6A23F44072F7
:105520007B685B68174913430B62FB7D012B05D138
:10553000144BDB69134A23F08053D3617B681B68EB
:1055400003F00203002B08D00E4B5B6823F44042AB
:105550007B689B680B4913434B607B681B6803F0B7
:105560001003002B08D0074B5B6823F480027B6894
:10557000DB68044913434B60002318461837BD46C7
:1055800080BD00BF00100240007000404004424255
:1055900090B58DB000AF7860554B07F10C040FCB80
:1055A00084E80F00534B1B883B8100237B62002360
:1055B000FB6200233B620023FB610023BB627B682C
:1055C000022B7FD0102B02D0012B48D08BE04A4B0E
:1055D0005B68FB61484B1B6803F08073002B7FD036
:1055E000FB699B0C03F00F0307F13002134413F81F
:1055F000243C3B62FB6903F48033002B18D03E4B04
:105600005B685B0C03F0010307F13002134413F8ED
:10561000283C7B62FB6903F48033002B0DD0374AB2
:105620007B6AB2FBF3F23B6A02FB03F3FB6204E02A
:105630003B6A334A02FB03F3FB622F4B5B6803F4C4
:105640008003B3F5800F02D1FB6ABB6248E0FB6ABE
:105650005B002C4AA2FB03235B08BB6240E0264BA5
:105660001B6AFB61FB6903F44073B3F5807F08D1CB
:10567000FB6903F00203002B03D04FF40043BB622D
:105680001FE0FB6903F44073B3F5007F09D11A4BA7
:105690005B6A03F00203002B03D049F64043BB6270
:1056A0000FE0FB6903F44073B3F5407F1AD1124B4E
:1056B0001B6803F40033002B14D04FF22443BB6269
:1056C00010E00FE0FFF77CFE02460B4B5B689B0B84
:1056D00003F0030301335B00B2FBF3F3BB6202E0B0
:1056E00000BF00E000BFBB6A18463437BD4690BD1E
:1056F000B0CF0008C0CF00080010024000127A00AE
:1057000000093D00ABAAAAAA80B584B000AF7860BA
:105710000023FB607B68002B01D1012384E07B68C0
:105720005B7CDBB2002B05D17B6800221A747868A1
:10573000FCF77EFD7B6802225A74786800F07AF8E4
:105740000346002B04D07B6804225A7401236BE0CB
:10575000786800F09CF80346002B04D07B68042294
:105760005A74012360E07B681B685A687B681B6879
:1057700022F007025A607B689B68002B05D02C4BF7
:105780001B6B2B4A23F001031363294BDB6A23F4C1
:1057900060727B689B6826491343CB627B685B68B9
:1057A000B3F1FF3F03D07B685B68FB600EE0012034
:1057B000FFF7EEFEF860FB68002B04D17B68042243
:1057C0005A74012330E0FB68013BFB607B681B6877
:1057D0009B6823F00F01FB681A0C7B681B680A4367
:1057E0009A607B681B68DB681B0C1B04FA6891B22B
:1057F0007A6812680B43D360786800F070F803464B
:10580000002B04D07B6804225A7401230CE07B68CF
:105810000022DA737B6801225A737B6801229A7333
:105820007B6801225A74002318461037BD4680BD9C
:10583000006C004080B584B000AF78600023FB604E
:105840007B68002B01D101231DE07B681B685A682F
:105850007B681B6822F008025A60FCF7C7FFF860FB
:1058600009E0FCF7C3FF0246FB68D31AB3F57A7F61
:1058700001D9032307E07B681B685B6803F008031A
:10588000002BEED0002318461037BD4680BD80B5F2
:1058900084B000AF78600023FB60FCF7A7FFF860DE
:1058A00009E0FCF7A3FF0246FB68D31AB3F57A7F41
:1058B00001D903230FE07B681B685B6803F02003BA
:1058C000002BEED07B681B685A687B681B6842F02F
:1058D00010025A60002318461037BD4680BD80B5BF
:1058E00084B000AF78600023FB607B681B685A6857
:1058F0007B681B6822F010025A60FCF777FFF860A3
:1059000009E0FCF773FF0246FB68D31AB3F57A7F10
:1059100001D9032307E07B681B685B6803F0200361
:10592000002BEED0002318461037BD4680BD000086
:1059300080B487B000AFF860B9607A6000237B6103
:10594000074B7B61BB689B007A6913447B617B6971
:105950007A6892B21A6000BF1C37BD4680BC70479F
:10596000006C004080B485B000AF786039600023DF
:10597000FB600023BB60084BFB603B689B00FA6840
:105980001344FB60FB681B689BB2BB60BB68184696
:105990001437BD4680BC7047006C004080B582B0B3
:1059A00000AF78607B68002B01D101233FE07B686A
:1059B00093F83930DBB2002B06D17B68002283F8E4
:1059C00038207868FCF7CAFD7B68242283F83920E8
:1059D0007B681B68DA687B681B6822F40052DA6017
:1059E000786800F07DFC7B681B681A697B681B681F
:1059F00022F490421A617B681B685A697B681B68B5
:105A000022F02A025A617B681B68DA687B681B688F
:105A100042F40052DA607B680022DA637B6820225D
:105A200083F839207B68202283F83A200023184627
:105A30000837BD4680BD80B582B000AF78607B6816
:105A4000002B01D101231EE07B68242283F839203A
:105A50007B681B68DA687B681B6822F40052DA6096
:105A60007868FCF7F9FD7B680022DA637B68002226
:105A700083F839207B68002283F83A207B68002273
:105A800083F83820002318460837BD4680BD80B50E
:105A90008AB002AFF860B9603B601346FB80002318
:105AA0007B61FB6893F83930DBB2202B7CD1BB687B
:105AB000002B02D0FB88002B01D1012375E0FB688D
:105AC00093F83830012B01D102236EE0FB680122EC
:105AD00083F83820FB680022DA63FB68212283F810
